{
  "contractName": "ERC721",
  "abi": [
    {
      "inputs": [
        {
          "internalType": "string",
          "name": "name",
          "type": "string"
        },
        {
          "internalType": "string",
          "name": "symbol",
          "type": "string"
        }
      ],
      "stateMutability": "nonpayable",
      "type": "constructor"
    },
    {
      "anonymous": false,
      "inputs": [
        {
          "indexed": true,
          "internalType": "address",
          "name": "owner",
          "type": "address"
        },
        {
          "indexed": true,
          "internalType": "address",
          "name": "approved",
          "type": "address"
        },
        {
          "indexed": true,
          "internalType": "bytes32",
          "name": "tokenId",
          "type": "bytes32"
        }
      ],
      "name": "Approval",
      "type": "event"
    },
    {
      "anonymous": false,
      "inputs": [
        {
          "indexed": true,
          "internalType": "address",
          "name": "owner",
          "type": "address"
        },
        {
          "indexed": true,
          "internalType": "address",
          "name": "operator",
          "type": "address"
        },
        {
          "indexed": false,
          "internalType": "bool",
          "name": "approved",
          "type": "bool"
        }
      ],
      "name": "ApprovalForAll",
      "type": "event"
    },
    {
      "anonymous": false,
      "inputs": [
        {
          "indexed": true,
          "internalType": "address",
          "name": "from",
          "type": "address"
        },
        {
          "indexed": true,
          "internalType": "address",
          "name": "to",
          "type": "address"
        },
        {
          "indexed": true,
          "internalType": "bytes32",
          "name": "tokenId",
          "type": "bytes32"
        }
      ],
      "name": "Transfer",
      "type": "event"
    },
    {
      "inputs": [
        {
          "internalType": "bytes32",
          "name": "",
          "type": "bytes32"
        }
      ],
      "name": "_ipfsAddressByTokenId",
      "outputs": [
        {
          "internalType": "string",
          "name": "",
          "type": "string"
        }
      ],
      "stateMutability": "view",
      "type": "function",
      "constant": true
    },
    {
      "inputs": [
        {
          "internalType": "bytes32",
          "name": "",
          "type": "bytes32"
        },
        {
          "internalType": "address",
          "name": "",
          "type": "address"
        }
      ],
      "name": "_joinAproved",
      "outputs": [
        {
          "internalType": "bool",
          "name": "",
          "type": "bool"
        }
      ],
      "stateMutability": "view",
      "type": "function",
      "constant": true
    },
    {
      "inputs": [
        {
          "internalType": "bytes32",
          "name": "",
          "type": "bytes32"
        },
        {
          "internalType": "address",
          "name": "",
          "type": "address"
        }
      ],
      "name": "_ownershipPercentage",
      "outputs": [
        {
          "internalType": "uint256",
          "name": "",
          "type": "uint256"
        }
      ],
      "stateMutability": "view",
      "type": "function",
      "constant": true
    },
    {
      "inputs": [
        {
          "internalType": "bytes32",
          "name": "",
          "type": "bytes32"
        },
        {
          "internalType": "uint256",
          "name": "",
          "type": "uint256"
        }
      ],
      "name": "data",
      "outputs": [
        {
          "internalType": "uint256",
          "name": "percentage",
          "type": "uint256"
        },
        {
          "internalType": "address",
          "name": "owner",
          "type": "address"
        },
        {
          "internalType": "uint256",
          "name": "numToken",
          "type": "uint256"
        }
      ],
      "stateMutability": "view",
      "type": "function",
      "constant": true
    },
    {
      "inputs": [
        {
          "internalType": "bytes32",
          "name": "",
          "type": "bytes32"
        }
      ],
      "name": "percentageAproved",
      "outputs": [
        {
          "internalType": "uint256",
          "name": "",
          "type": "uint256"
        }
      ],
      "stateMutability": "view",
      "type": "function",
      "constant": true
    },
    {
      "inputs": [
        {
          "internalType": "bytes4",
          "name": "interfaceId",
          "type": "bytes4"
        }
      ],
      "name": "supportsInterface",
      "outputs": [
        {
          "internalType": "bool",
          "name": "",
          "type": "bool"
        }
      ],
      "stateMutability": "view",
      "type": "function",
      "constant": true
    },
    {
      "inputs": [
        {
          "internalType": "address",
          "name": "owner",
          "type": "address"
        }
      ],
      "name": "balanceOf",
      "outputs": [
        {
          "internalType": "uint256",
          "name": "",
          "type": "uint256"
        }
      ],
      "stateMutability": "view",
      "type": "function",
      "constant": true
    },
    {
      "inputs": [
        {
          "internalType": "bytes32",
          "name": "tokenId",
          "type": "bytes32"
        }
      ],
      "name": "ownerOf",
      "outputs": [
        {
          "internalType": "address[]",
          "name": "",
          "type": "address[]"
        }
      ],
      "stateMutability": "view",
      "type": "function",
      "constant": true
    },
    {
      "inputs": [],
      "name": "name",
      "outputs": [
        {
          "internalType": "string",
          "name": "",
          "type": "string"
        }
      ],
      "stateMutability": "view",
      "type": "function",
      "constant": true
    },
    {
      "inputs": [],
      "name": "symbol",
      "outputs": [
        {
          "internalType": "string",
          "name": "",
          "type": "string"
        }
      ],
      "stateMutability": "view",
      "type": "function",
      "constant": true
    },
    {
      "inputs": [
        {
          "internalType": "bytes32",
          "name": "tokenId",
          "type": "bytes32"
        }
      ],
      "name": "tokenURI",
      "outputs": [
        {
          "internalType": "string",
          "name": "",
          "type": "string"
        }
      ],
      "stateMutability": "view",
      "type": "function",
      "constant": true
    },
    {
      "inputs": [],
      "name": "baseURI",
      "outputs": [
        {
          "internalType": "string",
          "name": "",
          "type": "string"
        }
      ],
      "stateMutability": "view",
      "type": "function",
      "constant": true
    },
    {
      "inputs": [
        {
          "internalType": "address",
          "name": "owner",
          "type": "address"
        },
        {
          "internalType": "uint256",
          "name": "index",
          "type": "uint256"
        }
      ],
      "name": "tokenOfOwnerByIndex",
      "outputs": [
        {
          "internalType": "bytes32",
          "name": "",
          "type": "bytes32"
        }
      ],
      "stateMutability": "view",
      "type": "function",
      "constant": true
    },
    {
      "inputs": [],
      "name": "totalSupply",
      "outputs": [
        {
          "internalType": "uint256",
          "name": "",
          "type": "uint256"
        }
      ],
      "stateMutability": "view",
      "type": "function",
      "constant": true
    },
    {
      "inputs": [
        {
          "internalType": "uint256",
          "name": "index",
          "type": "uint256"
        }
      ],
      "name": "tokenByIndex",
      "outputs": [
        {
          "internalType": "bytes32",
          "name": "",
          "type": "bytes32"
        }
      ],
      "stateMutability": "view",
      "type": "function",
      "constant": true
    },
    {
      "inputs": [
        {
          "internalType": "address",
          "name": "to",
          "type": "address"
        },
        {
          "internalType": "bytes32",
          "name": "tokenId",
          "type": "bytes32"
        }
      ],
      "name": "approve",
      "outputs": [],
      "stateMutability": "nonpayable",
      "type": "function"
    },
    {
      "inputs": [
        {
          "internalType": "bytes32",
          "name": "tokenId",
          "type": "bytes32"
        }
      ],
      "name": "getApproved",
      "outputs": [
        {
          "internalType": "address",
          "name": "",
          "type": "address"
        }
      ],
      "stateMutability": "view",
      "type": "function",
      "constant": true
    },
    {
      "inputs": [
        {
          "internalType": "address",
          "name": "operator",
          "type": "address"
        },
        {
          "internalType": "bool",
          "name": "approved",
          "type": "bool"
        }
      ],
      "name": "setApprovalForAll",
      "outputs": [],
      "stateMutability": "nonpayable",
      "type": "function"
    },
    {
      "inputs": [
        {
          "internalType": "address",
          "name": "owner",
          "type": "address"
        },
        {
          "internalType": "address",
          "name": "operator",
          "type": "address"
        }
      ],
      "name": "isApprovedForAll",
      "outputs": [
        {
          "internalType": "bool",
          "name": "",
          "type": "bool"
        }
      ],
      "stateMutability": "view",
      "type": "function",
      "constant": true
    },
    {
      "inputs": [
        {
          "internalType": "address",
          "name": "from",
          "type": "address"
        },
        {
          "internalType": "address",
          "name": "to",
          "type": "address"
        },
        {
          "internalType": "bytes32",
          "name": "tokenId",
          "type": "bytes32"
        }
      ],
      "name": "transferFrom",
      "outputs": [],
      "stateMutability": "nonpayable",
      "type": "function"
    },
    {
      "inputs": [
        {
          "internalType": "address",
          "name": "from",
          "type": "address"
        },
        {
          "internalType": "address",
          "name": "to",
          "type": "address"
        },
        {
          "internalType": "bytes32",
          "name": "tokenId",
          "type": "bytes32"
        }
      ],
      "name": "safeTransferFrom",
      "outputs": [],
      "stateMutability": "nonpayable",
      "type": "function"
    },
    {
      "inputs": [
        {
          "internalType": "address",
          "name": "to",
          "type": "address"
        },
        {
          "internalType": "bytes32",
          "name": "tokenId",
          "type": "bytes32"
        },
        {
          "internalType": "string",
          "name": "ipfsId",
          "type": "string"
        }
      ],
      "name": "createToken",
      "outputs": [],
      "stateMutability": "nonpayable",
      "type": "function"
    },
    {
      "inputs": [
        {
          "internalType": "bytes32[]",
          "name": "_tokens",
          "type": "bytes32[]"
        },
        {
          "internalType": "string",
          "name": "_newToken",
          "type": "string"
        }
      ],
      "name": "joinTokens",
      "outputs": [],
      "stateMutability": "nonpayable",
      "type": "function"
    },
    {
      "inputs": [
        {
          "internalType": "bytes32",
          "name": "_tokenId",
          "type": "bytes32"
        }
      ],
      "name": "getParents",
      "outputs": [
        {
          "internalType": "bytes32[]",
          "name": "",
          "type": "bytes32[]"
        }
      ],
      "stateMutability": "view",
      "type": "function",
      "constant": true
    },
    {
      "inputs": [
        {
          "internalType": "bytes32",
          "name": "_tokenId",
          "type": "bytes32"
        }
      ],
      "name": "getIpfsId",
      "outputs": [
        {
          "internalType": "string",
          "name": "",
          "type": "string"
        }
      ],
      "stateMutability": "view",
      "type": "function",
      "constant": true
    },
    {
      "inputs": [
        {
          "internalType": "bytes32[]",
          "name": "_tokens",
          "type": "bytes32[]"
        },
        {
          "internalType": "uint256[]",
          "name": "_ownerPercentage",
          "type": "uint256[]"
        },
        {
          "internalType": "string",
          "name": "_newToken",
          "type": "string"
        }
      ],
      "name": "joinAprove",
      "outputs": [],
      "stateMutability": "nonpayable",
      "type": "function"
    }
  ],
  "bytecode": "0x60806040523480156200001157600080fd5b50604051620047d0380380620047d0833981810160405260408110156200003757600080fd5b81019080805160405193929190846401000000008211156200005857600080fd5b838201915060208201858111156200006f57600080fd5b82518660018202830111640100000000821117156200008d57600080fd5b8083526020830192505050908051906020019080838360005b83811015620000c3578082015181840152602081019050620000a6565b50505050905090810190601f168015620000f15780820380516001836020036101000a031916815260200191505b50604052602001805160405193929190846401000000008211156200011557600080fd5b838201915060208201858111156200012c57600080fd5b82518660018202830111640100000000821117156200014a57600080fd5b8083526020830192505050908051906020019080838360005b838110156200018057808201518184015260208101905062000163565b50505050905090810190601f168015620001ae5780820380516001836020036101000a031916815260200191505b50604052505050620001cd6301ffc9a760e01b6200024f60201b60201c565b81600a9080519060200190620001e592919062000358565b5080600b9080519060200190620001fe92919062000358565b50620002176380ac58cd60e01b6200024f60201b60201c565b6200022f635b5e139f60e01b6200024f60201b60201c565b6200024763780e9d6360e01b6200024f60201b60201c565b505062000407565b63ffffffff60e01b817bffffffffffffffffffffffffffffffffffffffffffffffffffffffff19161415620002ec576040517f08c379a000000000000000000000000000000000000000000000000000000000815260040180806020018281038252601c8152602001807f4552433136353a20696e76616c696420696e746572666163652069640000000081525060200191505060405180910390fd5b6001600080837bffffffffffffffffffffffffffffffffffffffffffffffffffffffff19167bffffffffffffffffffffffffffffffffffffffffffffffffffffffff1916815260200190815260200160002060006101000a81548160ff02191690831515021790555050565b828054600181600116156101000203166002900490600052602060002090601f016020900481019282601f106200039b57805160ff1916838001178555620003cc565b82800160010185558215620003cc579182015b82811115620003cb578251825591602001919060010190620003ae565b5b509050620003db9190620003df565b5090565b6200040491905b8082111562000400576000816000905550600101620003e6565b5090565b90565b6143b980620004176000396000f3fe608060405234801561001057600080fd5b506004361061018e5760003560e01c806370a08231116100de578063afbb8d5111610097578063baba39d611610071578063baba39d614610d26578063e985e9c514610e75578063ed94492314610ef1578063ef270ee214610f335761018e565b8063afbb8d5114610b6a578063b3c06f5014610c11578063ba54d8d214610c7f5761018e565b806370a08231146108d05780637dd56411146109285780638d12c426146109ab57806395d89b4114610a31578063a22cb46514610ab4578063a9e9b75914610b045761018e565b806340a051911161014b5780635aafa264116101255780635aafa264146105755780635cd2f4d3146107585780636c0360eb146107a65780636d83759a146108295761018e565b806340a05191146103e0578063494b82c91461044e5780634f6ccce7146105335761018e565b806301ffc9a71461019357806306fdde03146101f85780630d1574ee1461027b57806318160ddd146102fe5780632f745c591461031c5780633b2ebf0f1461037e575b600080fd5b6101de600480360360208110156101a957600080fd5b8101908080357bffffffffffffffffffffffffffffffffffffffffffffffffffffffff19169060200190929190505050610fa1565b604051808215151515815260200191505060405180910390f35b610200611008565b6040518080602001828103825283818151815260200191508051906020019080838360005b83811015610240578082015181840152602081019050610225565b50505050905090810190601f16801561026d5780820380516001836020036101000a031916815260200191505b509250505060405180910390f35b6102a76004803603602081101561029157600080fd5b81019080803590602001909291905050506110aa565b6040518080602001828103825283818151815260200191508051906020019060200280838360005b838110156102ea5780820151818401526020810190506102cf565b505050509050019250505060405180910390f35b610306611190565b6040518082815260200191505060405180910390f35b6103686004803603604081101561033257600080fd5b81019080803573ffffffffffffffffffffffffffffffffffffffff1690602001909291908035906020019092919050505061119d565b6040518082815260200191505060405180910390f35b6103ca6004803603604081101561039457600080fd5b8101908080359060200190929190803573ffffffffffffffffffffffffffffffffffffffff16906020019092919050505061125c565b6040518082815260200191505060405180910390f35b61044c600480360360608110156103f657600080fd5b81019080803573ffffffffffffffffffffffffffffffffffffffff169060200190929190803573ffffffffffffffffffffffffffffffffffffffff16906020019092919080359060200190929190505050611281565b005b6105316004803603606081101561046457600080fd5b81019080803573ffffffffffffffffffffffffffffffffffffffff16906020019092919080359060200190929190803590602001906401000000008111156104ab57600080fd5b8201836020820111156104bd57600080fd5b803590602001918460018302840111640100000000831117156104df57600080fd5b91908080601f016020809104026020016040519081016040528093929190818152602001838380828437600081840152601f19601f8201169050808301925050505050505091929192905050506112f0565b005b61055f6004803603602081101561054957600080fd5b8101908080359060200190929190505050611447565b6040518082815260200191505060405180910390f35b6107566004803603606081101561058b57600080fd5b81019080803590602001906401000000008111156105a857600080fd5b8201836020820111156105ba57600080fd5b803590602001918460208302840111640100000000831117156105dc57600080fd5b919080806020026020016040519081016040528093929190818152602001838360200280828437600081840152601f19601f8201169050808301925050505050505091929192908035906020019064010000000081111561063c57600080fd5b82018360208201111561064e57600080fd5b8035906020019184602083028401116401000000008311171561067057600080fd5b919080806020026020016040519081016040528093929190818152602001838360200280828437600081840152601f19601f820116905080830192505050505050509192919290803590602001906401000000008111156106d057600080fd5b8201836020820111156106e257600080fd5b8035906020019184600183028401116401000000008311171561070457600080fd5b91908080601f016020809104026020016040519081016040528093929190818152602001838380828437600081840152601f19601f8201169050808301925050505050505091929192905050506114c7565b005b6107a46004803603604081101561076e57600080fd5b81019080803573ffffffffffffffffffffffffffffffffffffffff169060200190929190803590602001909291905050506122dc565b005b6107ae61248f565b6040518080602001828103825283818151815260200191508051906020019080838360005b838110156107ee5780820151818401526020810190506107d3565b50505050905090810190601f16801561081b5780820380516001836020036101000a031916815260200191505b509250505060405180910390f35b6108556004803603602081101561083f57600080fd5b8101908080359060200190929190505050612531565b6040518080602001828103825283818151815260200191508051906020019080838360005b8381101561089557808201518184015260208101905061087a565b50505050905090810190601f1680156108c25780820380516001836020036101000a031916815260200191505b509250505060405180910390f35b610912600480360360208110156108e657600080fd5b81019080803573ffffffffffffffffffffffffffffffffffffffff169060200190929190505050612661565b6040518082815260200191505060405180910390f35b6109546004803603602081101561093e57600080fd5b810190808035906020019092919050505061272f565b6040518080602001828103825283818151815260200191508051906020019060200280838360005b8381101561099757808201518184015260208101905061097c565b505050509050019250505060405180910390f35b6109e1600480360360408110156109c157600080fd5b81019080803590602001909291908035906020019092919050505061283f565b604051808481526020018373ffffffffffffffffffffffffffffffffffffffff1673ffffffffffffffffffffffffffffffffffffffff168152602001828152602001935050505060405180910390f35b610a396128a3565b6040518080602001828103825283818151815260200191508051906020019080838360005b83811015610a79578082015181840152602081019050610a5e565b50505050905090810190601f168015610aa65780820380516001836020036101000a031916815260200191505b509250505060405180910390f35b610b0260048036036040811015610aca57600080fd5b81019080803573ffffffffffffffffffffffffffffffffffffffff169060200190929190803515159060200190929190505050612945565b005b610b5060048036036040811015610b1a57600080fd5b8101908080359060200190929190803573ffffffffffffffffffffffffffffffffffffffff169060200190929190505050612ae8565b604051808215151515815260200191505060405180910390f35b610b9660048036036020811015610b8057600080fd5b8101908080359060200190929190505050612b17565b6040518080602001828103825283818151815260200191508051906020019080838360005b83811015610bd6578082015181840152602081019050610bbb565b50505050905090810190601f168015610c035780820380516001836020036101000a031916815260200191505b509250505060405180910390f35b610c7d60048036036060811015610c2757600080fd5b81019080803573ffffffffffffffffffffffffffffffffffffffff169060200190929190803573ffffffffffffffffffffffffffffffffffffffff16906020019092919080359060200190929190505050612d19565b005b610cab60048036036020811015610c9557600080fd5b8101908080359060200190929190505050612d88565b6040518080602001828103825283818151815260200191508051906020019080838360005b83811015610ceb578082015181840152602081019050610cd0565b50505050905090810190601f168015610d185780820380516001836020036101000a031916815260200191505b509250505060405180910390f35b610e7360048036036040811015610d3c57600080fd5b8101908080359060200190640100000000811115610d5957600080fd5b820183602082011115610d6b57600080fd5b80359060200191846020830284011164010000000083111715610d8d57600080fd5b919080806020026020016040519081016040528093929190818152602001838360200280828437600081840152601f19601f82011690508083019250505050505050919291929080359060200190640100000000811115610ded57600080fd5b820183602082011115610dff57600080fd5b80359060200191846001830284011164010000000083111715610e2157600080fd5b91908080601f016020809104026020016040519081016040528093929190818152602001838380828437600081840152601f19601f820116905080830192505050505050509192919290505050612e38565b005b610ed760048036036040811015610e8b57600080fd5b81019080803573ffffffffffffffffffffffffffffffffffffffff169060200190929190803573ffffffffffffffffffffffffffffffffffffffff169060200190929190505050613315565b604051808215151515815260200191505060405180910390f35b610f1d60048036036020811015610f0757600080fd5b81019080803590602001909291905050506133a9565b6040518082815260200191505060405180910390f35b610f5f60048036036020811015610f4957600080fd5b81019080803590602001909291905050506133c1565b604051808273ffffffffffffffffffffffffffffffffffffffff1673ffffffffffffffffffffffffffffffffffffffff16815260200191505060405180910390f35b6000806000837bffffffffffffffffffffffffffffffffffffffffffffffffffffffff19167bffffffffffffffffffffffffffffffffffffffffffffffffffffffff1916815260200190815260200160002060009054906101000a900460ff169050919050565b6060600a8054600181600116156101000203166002900480601f0160208091040260200160405190810160405280929190818152602001828054600181600116156101000203166002900480156110a05780601f10611075576101008083540402835291602001916110a0565b820191906000526020600020905b81548152906001019060200180831161108357829003601f168201915b5050505050905090565b60606110b58261345c565b611127576040517f08c379a000000000000000000000000000000000000000000000000000000000815260040180806020018281038252601a8152602001807f4572726f723a20546f6b656e20646f65736e277420657869737400000000000081525060200191505060405180910390fd5b6002600083815260200190815260200160002080548060200260200160405190810160405280929190818152602001828054801561118457602002820191906000526020600020905b815481526020019060010190808311611170575b50505050509050919050565b6000601080549050905090565b60006111a883612661565b82106111ff576040517f08c379a000000000000000000000000000000000000000000000000000000000815260040180806020018281038252602b815260200180614116602b913960400191505060405180910390fd5b600e60008473ffffffffffffffffffffffffffffffffffffffff1673ffffffffffffffffffffffffffffffffffffffff168152602001908152602001600020828154811061124957fe5b9060005260206000200154905092915050565b6007602052816000526040600020602052806000526040600020600091509150505481565b61128b3382613508565b6112e0576040517f08c379a00000000000000000000000000000000000000000000000000000000081526004018080602001828103825260318152602001806142e26031913960400191505060405180910390fd5b6112eb838383613666565b505050565b81816040516020018082805190602001908083835b602083106113285780518252602082019150602081019050602083039250611305565b6001836020036101000a03801982511681845116808217855250505050505090500191505060405160208183030381529060405280519060200120146113b9576040517f08c379a00000000000000000000000000000000000000000000000000000000081526004018080602001828103825260218152602001806142c16021913960400191505060405180910390fd5b6127106007600084815260200190815260200160002060003373ffffffffffffffffffffffffffffffffffffffff1673ffffffffffffffffffffffffffffffffffffffff1681526020019081526020016000208190555080600360008481526020019081526020016000209080519060200190611437929190613fc7565b506114428383613676565b505050565b6000611451611190565b82106114a8576040517f08c379a000000000000000000000000000000000000000000000000000000000815260040180806020018281038252602c815260200180614313602c913960400191505060405180910390fd5b601082815481106114b557fe5b90600052602060002001549050919050565b600080905060008090505b845181101561159d576114f78582815181106114ea57fe5b602002602001015161345c565b611569576040517f08c379a000000000000000000000000000000000000000000000000000000000815260040180806020018281038252601a8152602001807f4572726f723a20546f6b656e20646f65736e277420657869737400000000000081525060200191505060405180910390fd5b6115863386838151811061157957fe5b6020026020010151613508565b1561159057600191505b80806001019150506114d2565b50806115f4576040517f08c379a000000000000000000000000000000000000000000000000000000000815260040180806020018281038252604581526020018061433f6045913960600191505060405180910390fd5b825184511461166b576040517f08c379a00000000000000000000000000000000000000000000000000000000081526004018080602001828103825260168152602001807f417272617920646966666572656e74206c656e6774680000000000000000000081525060200191505060405180910390fd5b6000151560086000846040516020018082805190602001908083835b602083106116aa5780518252602082019150602081019050602083039250611687565b6001836020036101000a03801982511681845116808217855250505050505090500191505060405160208183030381529060405280519060200120815260200190815260200160002060003373ffffffffffffffffffffffffffffffffffffffff1673ffffffffffffffffffffffffffffffffffffffff16815260200190815260200160002060009054906101000a900460ff161515146117b3576040517f08c379a00000000000000000000000000000000000000000000000000000000081526004018080602001828103825260148152602001807f566f746520616c7265616479206170706c69656400000000000000000000000081525060200191505060405180910390fd5b600060126000846040516020018082805190602001908083835b602083106117f057805182526020820191506020810190506020830392506117cd565b6001836020036101000a038019825116818451168082178552505050505050905001915050604051602081830303815290604052805190602001208152602001908152602001600020805490501415611bc75760008090505b8451811015611bc55760606001600087848151811061186457fe5b602002602001015181526020019081526020016000208054806020026020016040519081016040528092919081815260200182805480156118fa57602002820191906000526020600020905b8160009054906101000a900473ffffffffffffffffffffffffffffffffffffffff1673ffffffffffffffffffffffffffffffffffffffff16815260200190600101908083116118b0575b5050505050905060008090505b8151811015611bb657611918614047565b61271087858151811061192757fe5b6020026020010151600760008b888151811061193f57fe5b602002602001015181526020019081526020016000206000600160008d8a8151811061196757fe5b60200260200101518152602001908152602001600020868154811061198857fe5b9060005260206000200160009054906101000a900473ffffffffffffffffffffffffffffffffffffffff1673ffffffffffffffffffffffffffffffffffffffff1673ffffffffffffffffffffffffffffffffffffffff1681526020019081526020016000205402816119f657fe5b0481600001818152505060016000898681518110611a1057fe5b602002602001015181526020019081526020016000208281548110611a3157fe5b9060005260206000200160009054906101000a900473ffffffffffffffffffffffffffffffffffffffff16816020019073ffffffffffffffffffffffffffffffffffffffff16908173ffffffffffffffffffffffffffffffffffffffff16815250508381604001818152505060126000876040516020018082805190602001908083835b60208310611ad85780518252602082019150602081019050602083039250611ab5565b6001836020036101000a0380198251168184511680821785525050505050509050019150506040516020818303038152906040528051906020012081526020019081526020016000208190806001815401808255809150506001900390600052602060002090600302016000909190919091506000820151816000015560208201518160010160006101000a81548173ffffffffffffffffffffffffffffffffffffffff021916908373ffffffffffffffffffffffffffffffffffffffff160217905550604082015181600201555050508080600101915050611907565b50508080600101915050611849565b505b600160086000846040516020018082805190602001908083835b60208310611c045780518252602082019150602081019050602083039250611be1565b6001836020036101000a03801982511681845116808217855250505050505090500191505060405160208183030381529060405280519060200120815260200190815260200160002060003373ffffffffffffffffffffffffffffffffffffffff1673ffffffffffffffffffffffffffffffffffffffff16815260200190815260200160002060006101000a81548160ff02191690831515021790555060008090505b60126000846040516020018082805190602001908083835b60208310611ce25780518252602082019150602081019050602083039250611cbf565b6001836020036101000a03801982511681845116808217855250505050505090500191505060405160208183030381529060405280519060200120815260200190815260200160002080549050811015611f6a5760126000846040516020018082805190602001908083835b60208310611d715780518252602082019150602081019050602083039250611d4e565b6001836020036101000a0380198251168184511680821785525050505050509050019150506040516020818303038152906040528051906020012081526020019081526020016000208181548110611dc557fe5b906000526020600020906003020160010160009054906101000a900473ffffffffffffffffffffffffffffffffffffffff1673ffffffffffffffffffffffffffffffffffffffff163373ffffffffffffffffffffffffffffffffffffffff161415611f5d5760126000846040516020018082805190602001908083835b60208310611e655780518252602082019150602081019050602083039250611e42565b6001836020036101000a0380198251168184511680821785525050505050509050019150506040516020818303038152906040528051906020012081526020019081526020016000208181548110611eb957fe5b90600052602060002090600302016000015460096000856040516020018082805190602001908083835b60208310611f065780518252602082019150602081019050602083039250611ee3565b6001836020036101000a038019825116818451168082178552505050505050905001915050604051602081830303815290604052805190602001208152602001908152602001600020600082825401925050819055505b8080600101915050611ca7565b5061138860096000846040516020018082805190602001908083835b60208310611fa95780518252602082019150602081019050602083039250611f86565b6001836020036101000a0380198251168184511680821785525050505050509050019150506040516020818303038152906040528051906020012081526020019081526020016000205411156122d65760008090505b60126000846040516020018082805190602001908083835b6020831061203a5780518252602082019150602081019050602083039250612017565b6001836020036101000a038019825116818451168082178552505050505050905001915050604051602081830303815290604052805190602001208152602001908152602001600020805490508110156122ca5760126000846040516020018082805190602001908083835b602083106120c957805182526020820191506020810190506020830392506120a6565b6001836020036101000a038019825116818451168082178552505050505050905001915050604051602081830303815290604052805190602001208152602001908152602001600020818154811061211d57fe5b90600052602060002090600302016000015460076000856040516020018082805190602001908083835b6020831061216a5780518252602082019150602081019050602083039250612147565b6001836020036101000a038019825116818451168082178552505050505050905001915050604051602081830303815290604052805190602001208152602001908152602001600020600060126000876040516020018082805190602001908083835b602083106121f057805182526020820191506020810190506020830392506121cd565b6001836020036101000a038019825116818451168082178552505050505050905001915050604051602081830303815290604052805190602001208152602001908152602001600020848154811061224457fe5b906000526020600020906003020160010160009054906101000a900473ffffffffffffffffffffffffffffffffffffffff1673ffffffffffffffffffffffffffffffffffffffff1673ffffffffffffffffffffffffffffffffffffffff168152602001908152602001600020600082825401925050819055508080600101915050611fff565b506122d58483612e38565b5b50505050565b60606122e78261272f565b9050600060019050600080905060008090505b83518110156123d1578573ffffffffffffffffffffffffffffffffffffffff1684828151811061232657fe5b602002602001015173ffffffffffffffffffffffffffffffffffffffff16141561235357600092506123c4565b83818151811061235f57fe5b602002602001015173ffffffffffffffffffffffffffffffffffffffff163373ffffffffffffffffffffffffffffffffffffffff1614806123b957506123b88482815181106123aa57fe5b602002602001015133613315565b5b156123c357600191505b5b80806001019150506122fa565b5081612428576040517f08c379a00000000000000000000000000000000000000000000000000000000081526004018080602001828103825260218152602001806142a06021913960400191505060405180910390fd5b8061247e576040517f08c379a00000000000000000000000000000000000000000000000000000000081526004018080602001828103825260388152602001806141916038913960400191505060405180910390fd5b61248885856138d6565b5050505050565b6060600d8054600181600116156101000203166002900480601f0160208091040260200160405190810160405280929190818152602001828054600181600116156101000203166002900480156125275780601f106124fc57610100808354040283529160200191612527565b820191906000526020600020905b81548152906001019060200180831161250a57829003601f168201915b5050505050905090565b606061253c8261345c565b6125ae576040517f08c379a000000000000000000000000000000000000000000000000000000000815260040180806020018281038252601a8152602001807f4572726f723a20546f6b656e20646f65736e277420657869737400000000000081525060200191505060405180910390fd5b600360008381526020019081526020016000208054600181600116156101000203166002900480601f0160208091040260200160405190810160405280929190818152602001828054600181600116156101000203166002900480156126555780601f1061262a57610100808354040283529160200191612655565b820191906000526020600020905b81548152906001019060200180831161263857829003601f168201915b50505050509050919050565b60008073ffffffffffffffffffffffffffffffffffffffff168273ffffffffffffffffffffffffffffffffffffffff1614156126e8576040517f08c379a000000000000000000000000000000000000000000000000000000000815260040180806020018281038252602a8152602001806141c9602a913960400191505060405180910390fd5b600560008373ffffffffffffffffffffffffffffffffffffffff1673ffffffffffffffffffffffffffffffffffffffff168152602001908152602001600020549050919050565b606060006001600084815260200190815260200160002080549050116127a0576040517f08c379a00000000000000000000000000000000000000000000000000000000081526004018080602001828103825260298152602001806141f36029913960400191505060405180910390fd5b6001600083815260200190815260200160002080548060200260200160405190810160405280929190818152602001828054801561283357602002820191906000526020600020905b8160009054906101000a900473ffffffffffffffffffffffffffffffffffffffff1673ffffffffffffffffffffffffffffffffffffffff16815260200190600101908083116127e9575b50505050509050919050565b6012602052816000526040600020818154811061285857fe5b9060005260206000209060030201600091509150508060000154908060010160009054906101000a900473ffffffffffffffffffffffffffffffffffffffff16908060020154905083565b6060600b8054600181600116156101000203166002900480601f01602080910402602001604051908101604052809291908181526020018280546001816001161561010002031660029004801561293b5780601f106129105761010080835404028352916020019161293b565b820191906000526020600020905b81548152906001019060200180831161291e57829003601f168201915b5050505050905090565b3373ffffffffffffffffffffffffffffffffffffffff168273ffffffffffffffffffffffffffffffffffffffff1614156129e7576040517f08c379a00000000000000000000000000000000000000000000000000000000081526004018080602001828103825260198152602001807f4552433732313a20617070726f766520746f2063616c6c65720000000000000081525060200191505060405180910390fd5b80600660003373ffffffffffffffffffffffffffffffffffffffff1673ffffffffffffffffffffffffffffffffffffffff16815260200190815260200160002060008473ffffffffffffffffffffffffffffffffffffffff1673ffffffffffffffffffffffffffffffffffffffff16815260200190815260200160002060006101000a81548160ff0219169083151502179055508173ffffffffffffffffffffffffffffffffffffffff163373ffffffffffffffffffffffffffffffffffffffff167f17307eab39ab6107e8899845ad3d59bd9653f200f220920489ca2b5937696c3183604051808215151515815260200191505060405180910390a35050565b60086020528160005260406000206020528060005260406000206000915091509054906101000a900460ff1681565b6060612b228261345c565b612b77576040517f08c379a000000000000000000000000000000000000000000000000000000000815260040180806020018281038252602f815260200180614271602f913960400191505060405180910390fd5b6060600c60008481526020019081526020016000208054600181600116156101000203166002900480601f016020809104026020016040519081016040528092919081815260200182805460018160011615610100020316600290048015612c205780601f10612bf557610100808354040283529160200191612c20565b820191906000526020600020905b815481529060010190602001808311612c0357829003601f168201915b50505050509050600081511415612c495760405180602001604052806000815250915050612d14565b600d816040516020018083805460018160011615610100020316600290048015612caa5780601f10612c88576101008083540402835291820191612caa565b820191906000526020600020905b815481529060010190602001808311612c96575b505082805190602001908083835b60208310612cdb5780518252602082019150602081019050602083039250612cb8565b6001836020036101000a038019825116818451168082178552505050505050905001925050506040516020818303038152906040529150505b919050565b612d233382613508565b612d78576040517f08c379a00000000000000000000000000000000000000000000000000000000081526004018080602001828103825260318152602001806142e26031913960400191505060405180910390fd5b612d83838383613987565b505050565b60036020528060005260406000206000915090508054600181600116156101000203166002900480601f016020809104026020016040519081016040528092919081815260200182805460018160011615610100020316600290048015612e305780601f10612e0557610100808354040283529160200191612e30565b820191906000526020600020905b815481529060010190602001808311612e1357829003601f168201915b505050505081565b600080905060008090505b8351811015612f0e57612e68848281518110612e5b57fe5b602002602001015161345c565b612eda576040517f08c379a000000000000000000000000000000000000000000000000000000000815260040180806020018281038252601a8152602001807f4572726f723a20546f6b656e20646f65736e277420657869737400000000000081525060200191505060405180910390fd5b612ef733858381518110612eea57fe5b6020026020010151613508565b15612f0157600191505b8080600101915050612e43565b5080612f65576040517f08c379a000000000000000000000000000000000000000000000000000000000815260040180806020018281038252604581526020018061433f6045913960600191505060405180910390fd5b6000826040516020018082805190602001908083835b60208310612f9e5780518252602082019150602081019050602083039250612f7b565b6001836020036101000a03801982511681845116808217855250505050505090500191505060405160208183030381529060405280519060200120905082600360008381526020019081526020016000209080519060200190613002929190613fc7565b508360026000856040516020018082805190602001908083835b6020831061303f578051825260208201915060208101905060208303925061301c565b6001836020036101000a038019825116818451168082178552505050505050905001915050604051602081830303815290604052805190602001208152602001908152602001600020908051906020019061309b92919061407e565b506130a58161345c565b15613118576040517f08c379a000000000000000000000000000000000000000000000000000000000815260040180806020018281038252601c8152602001807f4552433732313a20746f6b656e20616c7265616479206d696e7465640000000081525060200191505060405180910390fd5b60008090505b845181101561330e57606061314586838151811061313857fe5b602002602001015161272f565b905060008090505b81518110156132ff57613175600083838151811061316757fe5b602002602001015186613d1c565b61319282828151811061318457fe5b602002602001015185613d21565b61319b84613de5565b600160008581526020019081526020016000208282815181106131ba57fe5b60200260200101519080600181540180825580915050600190039060005260206000200160009091909190916101000a81548173ffffffffffffffffffffffffffffffffffffffff021916908373ffffffffffffffffffffffffffffffffffffffff16021790555060016005600084848151811061323457fe5b602002602001015173ffffffffffffffffffffffffffffffffffffffff1673ffffffffffffffffffffffffffffffffffffffff168152602001908152602001600020600082825401925050819055508382828151811061329057fe5b602002602001015173ffffffffffffffffffffffffffffffffffffffff16600073ffffffffffffffffffffffffffffffffffffffff167f8d61cf26ce654b1352bb60df9f3d4056b9e85a63977debf8fc9cd727aeda767e60405160405180910390a4808060010191505061314d565b5050808060010191505061311e565b5050505050565b6000600660008473ffffffffffffffffffffffffffffffffffffffff1673ffffffffffffffffffffffffffffffffffffffff16815260200190815260200160002060008373ffffffffffffffffffffffffffffffffffffffff1673ffffffffffffffffffffffffffffffffffffffff16815260200190815260200160002060009054906101000a900460ff16905092915050565b60096020528060005260406000206000915090505481565b60006133cc8261345c565b613421576040517f08c379a000000000000000000000000000000000000000000000000000000000815260040180806020018281038252602c81526020018061421c602c913960400191505060405180910390fd5b6004600083815260200190815260200160002060009054906101000a900473ffffffffffffffffffffffffffffffffffffffff169050919050565b60006060600160008481526020019081526020016000208054806020026020016040519081016040528092919081815260200182805480156134f357602002820191906000526020600020905b8160009054906101000a900473ffffffffffffffffffffffffffffffffffffffff1673ffffffffffffffffffffffffffffffffffffffff16815260200190600101908083116134a9575b50505050509050600081511415915050919050565b60006135138261345c565b613568576040517f08c379a000000000000000000000000000000000000000000000000000000000815260040180806020018281038252602c815260200180614165602c913960400191505060405180910390fd5b60606135738361272f565b90506000809050600080905060008090505b83518110156136135783818151811061359a57fe5b602002602001015173ffffffffffffffffffffffffffffffffffffffff168773ffffffffffffffffffffffffffffffffffffffff1614156135de5760019250613606565b6135fb8482815181106135ed57fe5b602002602001015188613315565b1561360557600191505b5b8080600101915050613585565b50818061365357508573ffffffffffffffffffffffffffffffffffffffff1661363b866133c1565b73ffffffffffffffffffffffffffffffffffffffff16145b8061365b5750805b935050505092915050565b613671838383613987565b505050565b600073ffffffffffffffffffffffffffffffffffffffff168273ffffffffffffffffffffffffffffffffffffffff161415613719576040517f08c379a00000000000000000000000000000000000000000000000000000000081526004018080602001828103825260208152602001807f4552433732313a206d696e7420746f20746865207a65726f206164647265737381525060200191505060405180910390fd5b6137228161345c565b15613795576040517f08c379a000000000000000000000000000000000000000000000000000000000815260040180806020018281038252601c8152602001807f4552433732313a20746f6b656e20616c7265616479206d696e7465640000000081525060200191505060405180910390fd5b6137a160008383613d1c565b6137ab8282613d21565b6137b481613de5565b60016000828152602001908152602001600020829080600181540180825580915050600190039060005260206000200160009091909190916101000a81548173ffffffffffffffffffffffffffffffffffffffff021916908373ffffffffffffffffffffffffffffffffffffffff1602179055506001600560008473ffffffffffffffffffffffffffffffffffffffff1673ffffffffffffffffffffffffffffffffffffffff16815260200190815260200160002060008282540192505081905550808273ffffffffffffffffffffffffffffffffffffffff16600073ffffffffffffffffffffffffffffffffffffffff167f8d61cf26ce654b1352bb60df9f3d4056b9e85a63977debf8fc9cd727aeda767e60405160405180910390a45050565b816004600083815260200190815260200160002060006101000a81548173ffffffffffffffffffffffffffffffffffffffff021916908373ffffffffffffffffffffffffffffffffffffffff160217905550808273ffffffffffffffffffffffffffffffffffffffff163373ffffffffffffffffffffffffffffffffffffffff167f36a9e0c1da9cdc6d8f4bd4cb261f9ad6a45eb1641a557ead7530fbeff9a2633660405160405180910390a45050565b60606139928261272f565b9050600080905060008090505b8251811015613a01578573ffffffffffffffffffffffffffffffffffffffff168382815181106139cb57fe5b602002602001015173ffffffffffffffffffffffffffffffffffffffff1614156139f457600191505b808060010191505061399f565b5080613a58576040517f08c379a00000000000000000000000000000000000000000000000000000000081526004018080602001828103825260298152602001806142486029913960400191505060405180910390fd5b600073ffffffffffffffffffffffffffffffffffffffff168473ffffffffffffffffffffffffffffffffffffffff161415613ade576040517f08c379a00000000000000000000000000000000000000000000000000000000081526004018080602001828103825260248152602001806141416024913960400191505060405180910390fd5b613ae9858585613d1c565b613af38584613e2e565b613afd8484613d21565b613b086000846138d6565b6001600560008773ffffffffffffffffffffffffffffffffffffffff1673ffffffffffffffffffffffffffffffffffffffff168152602001908152602001600020600082825403925050819055506001600560008673ffffffffffffffffffffffffffffffffffffffff1673ffffffffffffffffffffffffffffffffffffffff1681526020019081526020016000206000828254019250508190555060008090505b6001600085815260200190815260200160002080549050811015613cb9578573ffffffffffffffffffffffffffffffffffffffff16600160008681526020019081526020016000208281548110613bfd57fe5b9060005260206000200160009054906101000a900473ffffffffffffffffffffffffffffffffffffffff1673ffffffffffffffffffffffffffffffffffffffff161415613cac5784600160008681526020019081526020016000208281548110613c6357fe5b9060005260206000200160006101000a81548173ffffffffffffffffffffffffffffffffffffffff021916908373ffffffffffffffffffffffffffffffffffffffff1602179055505b8080600101915050613baa565b50828473ffffffffffffffffffffffffffffffffffffffff168673ffffffffffffffffffffffffffffffffffffffff167f8d61cf26ce654b1352bb60df9f3d4056b9e85a63977debf8fc9cd727aeda767e60405160405180910390a45050505050565b505050565b600e60008373ffffffffffffffffffffffffffffffffffffffff1673ffffffffffffffffffffffffffffffffffffffff16815260200190815260200160002080549050600f600083815260200190815260200160002081905550600e60008373ffffffffffffffffffffffffffffffffffffffff1673ffffffffffffffffffffffffffffffffffffffff1681526020019081526020016000208190806001815401808255809150506001900390600052602060002001600090919091909150555050565b6010805490506011600083815260200190815260200160002081905550601081908060018154018082558091505060019003906000526020600020016000909190919091505550565b60006001600e60008573ffffffffffffffffffffffffffffffffffffffff1673ffffffffffffffffffffffffffffffffffffffff168152602001908152602001600020805490500390506000600f6000848152602001908152602001600020549050818114613f63576000600e60008673ffffffffffffffffffffffffffffffffffffffff1673ffffffffffffffffffffffffffffffffffffffff1681526020019081526020016000208381548110613ee357fe5b9060005260206000200154905080600e60008773ffffffffffffffffffffffffffffffffffffffff1673ffffffffffffffffffffffffffffffffffffffff1681526020019081526020016000208381548110613f3b57fe5b906000526020600020018190555081600f600083815260200190815260200160002081905550505b600e60008573ffffffffffffffffffffffffffffffffffffffff1673ffffffffffffffffffffffffffffffffffffffff168152602001908152602001600020805480613fab57fe5b6001900381819060005260206000200160009055905550505050565b828054600181600116156101000203166002900490600052602060002090601f016020900481019282601f1061400857805160ff1916838001178555614036565b82800160010185558215614036579182015b8281111561403557825182559160200191906001019061401a565b5b50905061404391906140cb565b5090565b604051806060016040528060008152602001600073ffffffffffffffffffffffffffffffffffffffff168152602001600081525090565b8280548282559060005260206000209081019282156140ba579160200282015b828111156140b957825182559160200191906001019061409e565b5b5090506140c791906140f0565b5090565b6140ed91905b808211156140e95760008160009055506001016140d1565b5090565b90565b61411291905b8082111561410e5760008160009055506001016140f6565b5090565b9056fe455243373231456e756d657261626c653a206f776e657220696e646578206f7574206f6620626f756e64734552433732313a207472616e7366657220746f20746865207a65726f20616464726573734552433732313a206f70657261746f7220717565727920666f72206e6f6e6578697374656e7420746f6b656e4552433732313a20617070726f76652063616c6c6572206973206e6f74206f776e6572206e6f7220617070726f76656420666f7220616c6c4552433732313a2062616c616e636520717565727920666f7220746865207a65726f20616464726573734552433732313a206f776e657220717565727920666f72206e6f6e6578697374656e7420746f6b656e4552433732313a20617070726f76656420717565727920666f72206e6f6e6578697374656e7420746f6b656e4552433732313a207472616e73666572206f6620746f6b656e2074686174206973206e6f74206f776e4552433732314d657461646174613a2055524920717565727920666f72206e6f6e6578697374656e7420746f6b656e4552433732313a20617070726f76616c20746f2063757272656e74206f776e6572546f6b656e496420616e642069706673496420646f6573206e6f74206d617463684552433732313a207472616e736665722063616c6c6572206973206e6f74206f776e6572206e6f7220617070726f766564455243373231456e756d657261626c653a20676c6f62616c20696e646578206f7574206f6620626f756e64734552433732313a207472616e736665722063616c6c6572206973206e6f74206f776e6572206e6f7220617070726f766564206f6620746f6b656e31206f7220746f6b656e32a26469706673582212205dde5a1e63c7ddbc68317b81ee4cba5d55ca2a1546b41379cc89226ad92cff3364736f6c634300060b0033",
  "immutableReferences": {},
  "source": "pragma solidity ^0.6.11;\n\n// SPDX-License-Identifier: Apache-2.0\n/** \n * @title Smart Contracts\n * @author Alonso Rodriguez\n * @notice These contracts allows implement the logic of the aplication. Based on ERC721\n * @dev Status: dev\n */\n//import \"./IERC721Receiver.sol\";\nimport \"./ERC165.sol\";\n//import \"./Ownable.sol\";\n\n/**\n * @title ERC721 Non-Fungible Token Standard basic implementation\n * @dev see https://eips.ethereum.org/EIPS/eip-721\n */\ncontract ERC721 is ERC165 {\n\n    event Transfer(address indexed from, address indexed to, bytes32 indexed tokenId);\n    event Approval(address indexed owner, address indexed approved, bytes32 indexed tokenId);\n    event ApprovalForAll(address indexed owner, address indexed operator, bool approved);\n\n    // Equals to `bytes4(keccak256(\"onERC721Received(address,address,uint256,bytes)\"))`\n    // which can be also obtained as `IERC721Receiver(0).onERC721Received.selector`\n    bytes4 private constant _ERC721_RECEIVED = 0x150b7a02;\n\n    // Mapping from token ID to owner\n    mapping (bytes32 => address[]) private _tokenOwner;\n\n    mapping (bytes32 => bytes32[]) private _parents;\n    mapping (bytes32 => string) public _ipfsAddressByTokenId;\n\n    // Mapping from token ID to approved address\n    mapping (bytes32 => address) private _tokenApprovals;\n\n    // Mapping from owner to number of owned token\n    mapping (address => uint256) private _ownedTokensCount;\n\n    // Mapping from owner to operator approvals\n    mapping (address => mapping (address => bool)) private _operatorApprovals;\n\n    mapping (bytes32 => mapping (address => uint)) public _ownershipPercentage;\n    mapping (bytes32 => mapping (address => bool)) public _joinAproved;\n    mapping (bytes32 => uint) public percentageAproved;\n\n\n    // Token name\n    string private _name;\n\n    // Token symbol\n    string private _symbol;\n\n    // Optional mapping for token URIs\n    mapping(bytes32 => string) private _tokenURIs;\n\n    // Base URI\n    string private _baseURI;\n\n    // Mapping from owner to list of owned token IDs\n    mapping(address => bytes32[]) private _ownedTokens;\n\n    // Mapping from token ID to index of the owner tokens list\n    mapping(bytes32 => uint256) private _ownedTokensIndex;\n\n    // Array with all token ids, used for enumeration\n    bytes32[] private _allTokens;\n\n    // Mapping from token id to position in the allTokens array\n    mapping(bytes32 => uint256) private _allTokensIndex;\n\n    /*\n     *     bytes4(keccak256('balanceOf(address)')) == 0x70a08231\n     *     bytes4(keccak256('ownerOf(uint256)')) == 0x6352211e\n     *     bytes4(keccak256('approve(address,uint256)')) == 0x095ea7b3\n     *     bytes4(keccak256('getApproved(uint256)')) == 0x081812fc\n     *     bytes4(keccak256('setApprovalForAll(address,bool)')) == 0xa22cb465\n     *     bytes4(keccak256('isApprovedForAll(address,address)')) == 0xe985e9c5\n     *     bytes4(keccak256('transferFrom(address,address,uint256)')) == 0x23b872dd\n     *     bytes4(keccak256('safeTransferFrom(address,address,uint256)')) == 0x42842e0e\n     *     bytes4(keccak256('safeTransferFrom(address,address,uint256,bytes)')) == 0xb88d4fde\n     *\n     *     => 0x70a08231 ^ 0x6352211e ^ 0x095ea7b3 ^ 0x081812fc ^\n     *        0xa22cb465 ^ 0xe985e9c ^ 0x23b872dd ^ 0x42842e0e ^ 0xb88d4fde == 0x80ac58cd\n     */\n    bytes4 private constant _INTERFACE_ID_ERC721 = 0x80ac58cd;\n\n    /*\n     *     bytes4(keccak256('name()')) == 0x06fdde03\n     *     bytes4(keccak256('symbol()')) == 0x95d89b41\n     *     bytes4(keccak256('tokenURI(uint256)')) == 0xc87b56dd\n     *\n     *     => 0x06fdde03 ^ 0x95d89b41 ^ 0xc87b56dd == 0x5b5e139f\n     */\n    bytes4 private constant _INTERFACE_ID_ERC721_METADATA = 0x5b5e139f;\n\n    /*\n     *     bytes4(keccak256('totalSupply()')) == 0x18160ddd\n     *     bytes4(keccak256('tokenOfOwnerByIndex(address,uint256)')) == 0x2f745c59\n     *     bytes4(keccak256('tokenByIndex(uint256)')) == 0x4f6ccce7\n     *\n     *     => 0x18160ddd ^ 0x2f745c59 ^ 0x4f6ccce7 == 0x780e9d63\n     */\n    bytes4 private constant _INTERFACE_ID_ERC721_ENUMERABLE = 0x780e9d63;\n\n    constructor (string memory name, string memory symbol) public {\n        _name = name;\n        _symbol = symbol;\n\n        // register the supported interfaces to conform to ERC721 via ERC165\n        _registerInterface(_INTERFACE_ID_ERC721);\n        _registerInterface(_INTERFACE_ID_ERC721_METADATA);\n        _registerInterface(_INTERFACE_ID_ERC721_ENUMERABLE);\n    }\n\n    /**\n     * @dev Gets the balance of the specified address.\n     * @param owner address to query the balance of\n     * @return uint256 representing the amount owned by the passed address\n     */\n    function balanceOf(address owner) public view returns (uint256) {\n        require(owner != address(0), \"ERC721: balance query for the zero address\");\n\n        return _ownedTokensCount[owner];\n    }\n\n    /**\n     * @dev Gets the owner of the specified token ID.\n     * @param tokenId uint256 ID of the token to query the owner of\n     * @return address currently marked as the owner of the given token ID\n     */\n    function ownerOf(bytes32 tokenId) public view returns (address[] memory) {\n        require(_tokenOwner[tokenId].length > 0, \"ERC721: owner query for nonexistent token\");\n\n        return _tokenOwner[tokenId];\n    }\n\n    /**\n     * @dev Gets the token name.\n     * @return string representing the token name\n     */\n    function name() external view returns (string memory) {\n        return _name;\n    }\n\n    /**\n     * @dev Gets the token symbol.\n     * @return string representing the token symbol\n     */\n    function symbol() external view returns (string memory) {\n        return _symbol;\n    }\n\n    /**\n     * @dev Returns the URI for a given token ID. May return an empty string.\n     *\n     * If the token's URI is non-empty and a base URI was set (via\n     * {_setBaseURI}), it will be added to the token ID's URI as a prefix.\n     *\n     * Reverts if the token ID does not exist.\n     */\n    function tokenURI(bytes32 tokenId) external view returns (string memory) {\n        require(_exists(tokenId), \"ERC721Metadata: URI query for nonexistent token\");\n\n        string memory _tokenURI = _tokenURIs[tokenId];\n\n        // Even if there is a base URI, it is only appended to non-empty token-specific URIs\n        if (bytes(_tokenURI).length == 0) {\n            return \"\";\n        } else {\n            // abi.encodePacked is being used to concatenate strings\n            return string(abi.encodePacked(_baseURI, _tokenURI));\n        }\n    }\n\n    /**\n    * @dev Returns the base URI set via {_setBaseURI}. This will be\n    * automatically added as a preffix in {tokenURI} to each token's URI, when\n    * they are non-empty.\n    */\n    function baseURI() external view returns (string memory) {\n        return _baseURI;\n    }\n\n    /**\n     * @dev Gets the token ID at a given index of the tokens list of the requested owner.\n     * @param owner address owning the tokens list to be accessed\n     * @param index uint256 representing the index to be accessed of the requested tokens list\n     * @return uint256 token ID at the given index of the tokens list owned by the requested address\n     */\n    function tokenOfOwnerByIndex(address owner, uint256 index) public view  returns (bytes32) {\n        require(index < balanceOf(owner), \"ERC721Enumerable: owner index out of bounds\");\n        return _ownedTokens[owner][index];\n    }\n\n    /**\n     * @dev Gets the total amount of tokens stored by the contract.\n     * @return uint256 representing the total amount of tokens\n     */\n    function totalSupply() public view returns (uint256) {\n        return _allTokens.length;\n    }\n\n    /**\n     * @dev Gets the token ID at a given index of all the tokens in this contract\n     * Reverts if the index is greater or equal to the total number of tokens.\n     * @param index uint256 representing the index to be accessed of the tokens list\n     * @return uint256 token ID at the given index of the tokens list\n     */\n    function tokenByIndex(uint256 index) public view returns (bytes32) {\n        require(index < totalSupply(), \"ERC721Enumerable: global index out of bounds\");\n        return _allTokens[index];\n    }\n\n    /**\n     * @dev Approves another address to transfer the given token ID\n     * The zero address indicates there is no approved address.\n     * There can only be one approved address per token at a given time.\n     * Can only be called by the token owner or an approved operator.\n     * @param to address to be approved for the given token ID\n     * @param tokenId uint256 ID of the token to be approved\n     */\n    function approve(address to, bytes32 tokenId) public {\n        address[] memory owner = ownerOf(tokenId);\n        bool toIsNotTheOwner = true;\n        bool isOwnerOrApproved = false;\n        for (uint i = 0; i<owner.length; i++) {\n            if(owner[i]==to){\n                toIsNotTheOwner = false;\n            } else if (msg.sender == owner[i] || isApprovedForAll(owner[i], msg.sender)){\n                isOwnerOrApproved = true;\n            }\n        }\n        require(toIsNotTheOwner, \"ERC721: approval to current owner\");\n\n        require(isOwnerOrApproved, \"ERC721: approve caller is not owner nor approved for all\");\n\n        _approve(to, tokenId);\n    }\n\n    /**\n     * @dev Gets the approved address for a token ID, or zero if no address set\n     * Reverts if the token ID does not exist.\n     * @param tokenId uint256 ID of the token to query the approval of\n     * @return address currently approved for the given token ID\n     */\n    function getApproved(bytes32 tokenId) public view returns (address) {\n        require(_exists(tokenId), \"ERC721: approved query for nonexistent token\");\n\n        return _tokenApprovals[tokenId];\n    }\n\n    /**\n     * @dev Sets or unsets the approval of a given operator\n     * An operator is allowed to transfer all tokens of the sender on their behalf.\n     * @param operator operator address to set the approval\n     * @param approved representing the status of the approval to be set\n     */\n    function setApprovalForAll(address operator, bool approved) public {\n        require(operator != msg.sender, \"ERC721: approve to caller\");\n\n        _operatorApprovals[msg.sender][operator] = approved;\n        emit ApprovalForAll(msg.sender, operator, approved);\n    }\n\n    /**\n     * @dev Tells whether an operator is approved by a given owner.\n     * @param owner owner address which you want to query the approval of\n     * @param operator operator address which you want to query the approval of\n     * @return bool whether the given operator is approved by the given owner\n     */\n    function isApprovedForAll(address owner, address operator) public view returns (bool) {\n        return _operatorApprovals[owner][operator];\n    }\n\n    /**\n     * @dev Transfers the ownership of a given token ID to another address.\n     * Usage of this method is discouraged, use {safeTransferFrom} whenever possible.\n     * Requires the msg.sender to be the owner, approved, or operator.\n     * @param from current owner of the token\n     * @param to address to receive the ownership of the given token ID\n     * @param tokenId uint256 ID of the token to be transferred\n     */\n    function transferFrom(address from, address to, bytes32 tokenId) public {\n        //solhint-disable-next-line max-line-length\n        require(_isApprovedOrOwner(msg.sender, tokenId), \"ERC721: transfer caller is not owner nor approved\");\n\n        _transferFrom(from, to, tokenId);\n    }\n\n    /**\n     * @dev Safely transfers the ownership of a given token ID to another address\n     * If the target address is a contract, it must implement {IERC721Receiver-onERC721Received},\n     * which is called upon a safe transfer, and return the magic value\n     * `bytes4(keccak256(\"onERC721Received(address,address,uint256,bytes)\"))`; otherwise,\n     * the transfer is reverted.\n     * Requires the msg.sender to be the owner, approved, or operator\n     * @param from current owner of the token\n     * @param to address to receive the ownership of the given token ID\n     * @param tokenId uint256 ID of the token to be transferred\n     */\n    function safeTransferFrom(address from, address to, bytes32 tokenId) public {\n        require(_isApprovedOrOwner(msg.sender, tokenId), \"ERC721: transfer caller is not owner nor approved\");\n        _safeTransferFrom(from, to, tokenId);\n    }\n\n    /**\n     * @dev Safely transfers the ownership of a given token ID to another address\n     * If the target address is a contract, it must implement `onERC721Received`,\n     * which is called upon a safe transfer, and return the magic value\n     * `bytes4(keccak256(\"onERC721Received(address,address,uint256,bytes)\"))`; otherwise,\n     * the transfer is reverted.\n     * Requires the msg.sender to be the owner, approved, or operator\n     * @param from current owner of the token\n     * @param to address to receive the ownership of the given token ID\n     * @param tokenId uint256 ID of the token to be transferred\n     */\n    function _safeTransferFrom(address from, address to, bytes32 tokenId) internal {\n        _transferFrom(from, to, tokenId);\n    }\n\n    /**\n     * @dev Returns whether the specified token exists.\n     * @param tokenId uint256 ID of the token to query the existence of\n     * @return bool whether the token exists\n     */\n    function _exists(bytes32 tokenId) internal view returns (bool) {\n        address[] memory owner = _tokenOwner[tokenId];\n        return owner.length != 0;\n    }\n\n    /**\n     * @dev Returns whether the given spender can transfer a given token ID.\n     * @param spender address of the spender to query\n     * @param tokenId uint256 ID of the token to be transferred\n     * @return bool whether the msg.sender is approved for the given token ID,\n     * is an operator of the owner, or is the owner of the token\n     */\n    function _isApprovedOrOwner(address spender, bytes32 tokenId) internal view returns (bool) {\n        require(_exists(tokenId), \"ERC721: operator query for nonexistent token\");\n        address[] memory owner = ownerOf(tokenId);\n        bool spenderIsOwner = false;\n        bool spenderIsApprovedForAll = false;\n        for (uint i = 0; i<owner.length; i++) {\n            if(spender == owner[i]){\n                spenderIsOwner = true;\n            } else if (isApprovedForAll(owner[i], spender)){\n                spenderIsApprovedForAll = true;\n            }\n        }\n        return (spenderIsOwner || getApproved(tokenId) == spender || spenderIsApprovedForAll);\n    }\n\n\n    /**\n     * @dev Internal function to safely mint a new token.\n     * Reverts if the given token ID already exists.\n     * If the target address is a contract, it must implement `onERC721Received`,\n     * which is called upon a safe transfer, and return the magic value\n     * `bytes4(keccak256(\"onERC721Received(address,address,uint256,bytes)\"))`; otherwise,\n     * the transfer is reverted.\n     * @param to The address that will own the minted token\n     * @param tokenId uint256 ID of the token to be minted\n     */\n    function createToken(address to, bytes32 tokenId, string memory ipfsId) public {\n        require(keccak256(abi.encodePacked(ipfsId)) == tokenId, \"TokenId and ipfsId does not match\");\n        _ownershipPercentage[tokenId][msg.sender] = 10000;\n        _ipfsAddressByTokenId[tokenId] = ipfsId;\n        _mint(to, tokenId);\n    }\n\n    /**\n     * @dev Internal function to mint a new token.\n     * Reverts if the given token ID already exists.\n     * @param to The address that will own the minted token\n     * @param tokenId uint256 ID of the token to be minted\n     */\n    function _mint(address to, bytes32 tokenId) internal {\n        require(to != address(0), \"ERC721: mint to the zero address\");\n        require(!_exists(tokenId), \"ERC721: token already minted\");\n\n        _beforeTokenTransfer(address(0), to, tokenId);\n\n        _addTokenToOwnerEnumeration(to, tokenId);\n        _addTokenToAllTokensEnumeration(tokenId);\n\n        _tokenOwner[tokenId].push(to);\n        _ownedTokensCount[to] += 1;\n\n        emit Transfer(address(0), to, tokenId);\n    }\n\n    /**\n     * @dev Internal function to burn a specific token.\n     * Reverts if the token does not exist.\n     * @param tokenId uint256 ID of the token being burned\n     */\n    function _burn(bytes32 tokenId) internal {\n        address[] memory owner = ownerOf(tokenId);\n\n        for(uint i = 0; i<owner.length; i++){\n            _beforeTokenTransfer(owner[i], address(0), tokenId);\n            _removeTokenFromOwnerEnumeration(owner[i], tokenId);\n            _ownedTokensCount[owner[i]] -= 1;\n            emit Transfer(owner[i], address(0), tokenId);\n        }\n        // Clear metadata (if any)\n        if (bytes(_tokenURIs[tokenId]).length != 0) {\n            delete _tokenURIs[tokenId];\n        }\n\n        // Since tokenId will be deleted, we can clear its slot in _ownedTokensIndex to trigger a gas refund\n        _ownedTokensIndex[tokenId] = 0;\n\n        _removeTokenFromAllTokensEnumeration(tokenId);\n\n        // Clear approvals\n        _approve(address(0), tokenId);\n\n        _tokenOwner[tokenId] = [address(0)];\n    }\n\n    /**\n     * @dev Internal function to transfer ownership of a given token ID to another address.\n     * As opposed to {transferFrom}, this imposes no restrictions on msg.sender.\n     * @param from current owner of the token\n     * @param to address to receive the ownership of the given token ID\n     * @param tokenId uint256 ID of the token to be transferred\n     */\n    function _transferFrom(address from, address to, bytes32 tokenId) internal {\n        address[] memory owners = ownerOf(tokenId);\n        bool isOwner = false;\n        for (uint i = 0; i<owners.length; i++){\n            if (owners[i] == from){\n                isOwner = true;\n            }\n        }\n        require(isOwner, \"ERC721: transfer of token that is not own\");\n        require(to != address(0), \"ERC721: transfer to the zero address\");\n\n        _beforeTokenTransfer(from, to, tokenId);\n\n        _removeTokenFromOwnerEnumeration(from, tokenId);\n        _addTokenToOwnerEnumeration(to, tokenId);\n\n        // Clear approvals\n        _approve(address(0), tokenId);\n\n        _ownedTokensCount[from] -= 1;\n        _ownedTokensCount[to] += 1;\n\n        for (uint j = 0;j<_tokenOwner[tokenId].length;j++){\n            if (_tokenOwner[tokenId][j] == from){\n                _tokenOwner[tokenId][j] = to;\n            }\n        }\n        emit Transfer(from, to, tokenId);\n    }\n\n    /**\n     * @dev Internal function to set the token URI for a given token.\n     *\n     * Reverts if the token ID does not exist.\n     *\n     * TIP: If all token IDs share a prefix (for example, if your URIs look like\n     * `https://api.myproject.com/token/<id>`), use {_setBaseURI} to store\n     * it and save gas.\n     */\n    function _setTokenURI(bytes32 tokenId, string memory _tokenURI) internal {\n        require(_exists(tokenId), \"ERC721Metadata: URI set of nonexistent token\");\n        _tokenURIs[tokenId] = _tokenURI;\n    }\n\n    /**\n     * @dev Internal function to set the base URI for all token IDs. It is\n     * automatically added as a prefix to the value returned in {tokenURI}.\n     */\n    function _setBaseURI(string memory baseURI_) internal {\n        _baseURI = baseURI_;\n    }\n\n    /**\n     * @dev Gets the list of token IDs of the requested owner.\n     * @param owner address owning the tokens\n     * @return uint256[] List of token IDs owned by the requested address\n     */\n    function _tokensOfOwner(address owner) internal view returns (bytes32[] storage) {\n        return _ownedTokens[owner];\n    }\n\n    function _approve(address to, bytes32 tokenId) private {\n        _tokenApprovals[tokenId] = to;\n        emit Approval(msg.sender, to, tokenId);\n    }\n\n    /**\n     * @dev Private function to add a token to this extension's ownership-tracking data structures.\n     * @param to address representing the new owner of the given token ID\n     * @param tokenId uint256 ID of the token to be added to the tokens list of the given address\n     */\n    function _addTokenToOwnerEnumeration(address to, bytes32 tokenId) private {\n        _ownedTokensIndex[tokenId] = _ownedTokens[to].length;\n        _ownedTokens[to].push(tokenId);\n    }\n\n    /**\n     * @dev Private function to add a token to this extension's token tracking data structures.\n     * @param tokenId uint256 ID of the token to be added to the tokens list\n     */\n    function _addTokenToAllTokensEnumeration(bytes32 tokenId) private {\n        _allTokensIndex[tokenId] = _allTokens.length;\n        _allTokens.push(tokenId);\n    }\n\n    /**\n     * @dev Private function to remove a token from this extension's ownership-tracking data structures. Note that\n     * while the token is not assigned a new owner, the `_ownedTokensIndex` mapping is _not_ updated: this allows for\n     * gas optimizations e.g. when performing a transfer operation (avoiding double writes).\n     * This has O(1) time complexity, but alters the order of the _ownedTokens array.\n     * @param from address representing the previous owner of the given token ID\n     * @param tokenId uint256 ID of the token to be removed from the tokens list of the given address\n     */\n    function _removeTokenFromOwnerEnumeration(address from, bytes32 tokenId) private {\n        // To prevent a gap in from's tokens array, we store the last token in the index of the token to delete, and\n        // then delete the last slot (swap and pop).\n\n        uint256 lastTokenIndex = _ownedTokens[from].length - 1;\n        uint256 tokenIndex = _ownedTokensIndex[tokenId];\n\n        // When the token to delete is the last token, the swap operation is unnecessary\n        if (tokenIndex != lastTokenIndex) {\n            bytes32 lastTokenId = _ownedTokens[from][lastTokenIndex];\n\n            _ownedTokens[from][tokenIndex] = lastTokenId; // Move the last token to the slot of the to-delete token\n            _ownedTokensIndex[lastTokenId] = tokenIndex; // Update the moved token's index\n        }\n\n        // Deletes the contents at the last position of the array\n        _ownedTokens[from].pop();\n\n        // Note that _ownedTokensIndex[tokenId] hasn't been cleared: it still points to the old slot (now occupied by\n        // lastTokenId, or just over the end of the array if the token was the last one).\n    }\n\n    /**\n     * @dev Private function to remove a token from this extension's token tracking data structures.\n     * This has O(1) time complexity, but alters the order of the _allTokens array.\n     * @param tokenId uint256 ID of the token to be removed from the tokens list\n     */\n    function _removeTokenFromAllTokensEnumeration(bytes32 tokenId) private {\n        // To prevent a gap in the tokens array, we store the last token in the index of the token to delete, and\n        // then delete the last slot (swap and pop).\n\n        uint256 lastTokenIndex = _allTokens.length - 1;\n        uint256 tokenIndex = _allTokensIndex[tokenId];\n\n        // When the token to delete is the last token, the swap operation is unnecessary. However, since this occurs so\n        // rarely (when the last minted token is burnt) that we still do the swap here to avoid the gas cost of adding\n        // an 'if' statement (like in _removeTokenFromOwnerEnumeration)\n        bytes32 lastTokenId = _allTokens[lastTokenIndex];\n\n        _allTokens[tokenIndex] = lastTokenId; // Move the last token to the slot of the to-delete token\n        _allTokensIndex[lastTokenId] = tokenIndex; // Update the moved token's index\n\n        // Delete the contents at the last position of the array\n        _allTokens.pop();\n\n        _allTokensIndex[tokenId] = 0;\n    }\n\n    /**\n     * @dev Hook that is called before any token transfer. This includes minting\n     * and burning.\n     *\n     * Calling conditions:\n     *\n     * - when `from` and `to` are both non-zero, `from`'s `tokenId` will be\n     * transferred to `to`.\n     * - when `from` is zero, `tokenId` will be minted for `to`.\n     * - when `to` is zero, `from`'s `tokenId` will be burned.\n     * - `from` and `to` are never both zero.\n     *\n     * To learn more about hooks, head to xref:ROOT:using-hooks.adoc[Using Hooks].\n     */\n    function _beforeTokenTransfer(address from, address to, bytes32 tokenId) internal { }\n\n    /**\n     * @dev Returns true if `account` is a contract.\n     *\n     * [IMPORTANT]\n     * ====\n     * It is unsafe to assume that an address for which this function returns\n     * false is an externally-owned account (EOA) and not a contract.\n     *\n     * Among others, `isContract` will return false for the following\n     * types of addresses:\n     *\n     *  - an externally-owned account\n     *  - a contract in construction\n     *  - an address where a contract will be created\n     *  - an address where a contract lived, but was destroyed\n     * ====\n     */\n    function isContract(address account) internal view returns (bool) {\n        // According to EIP-1052, 0x0 is the value returned for not-yet created accounts\n        // and 0xc5d2460186f7233c927e7db2dcc703c0e500b653ca82273b7bfad8045d85a470 is returned\n        // for accounts without code, i.e. `keccak256('')`\n        bytes32 codehash;\n        bytes32 accountHash = 0xc5d2460186f7233c927e7db2dcc703c0e500b653ca82273b7bfad8045d85a470;\n        // solhint-disable-next-line no-inline-assembly\n        assembly { codehash := extcodehash(account) }\n        return (codehash != accountHash && codehash != 0x0);\n    }\n    function joinTokens (bytes32[] memory _tokens, string memory _newToken) public {\n        bool isApprovedOrOwner = false;\n        for (uint i = 0; i<_tokens.length; i++) {\n            require(_exists(_tokens[i]),\"Error: Token doesn't exist\");\n            if(_isApprovedOrOwner(msg.sender, _tokens[i])){\n                isApprovedOrOwner = true;\n            }\n        }\n        require(isApprovedOrOwner, \"ERC721: transfer caller is not owner nor approved of token1 or token2\");\n        bytes32 tokenId = keccak256(abi.encodePacked(_newToken));\n        _ipfsAddressByTokenId[tokenId] = _newToken;\n        _parents[keccak256(abi.encodePacked(_newToken))] = _tokens;\n        //AQUI TENGO QUE CREAR EL NUEVO TOKEN Y DARLE LA PROPIEDAD PROPORCIONAL A LOS DOS DUEOS\n        //require(to != address(0), \"ERC721: mint to the zero address\");\n        require(!_exists(tokenId), \"ERC721: token already minted\");\n        for (uint j = 0; j<_tokens.length; j++){\n            address[] memory owners = ownerOf(_tokens[j]);\n            for (uint i = 0; i<owners.length; i++){\n                _beforeTokenTransfer(address(0), owners[i], tokenId);\n\n                _addTokenToOwnerEnumeration(owners[i], tokenId);\n                _addTokenToAllTokensEnumeration(tokenId);\n\n                _tokenOwner[tokenId].push(owners[i]);\n                _ownedTokensCount[owners[i]] += 1;\n\n                emit Transfer(address(0), owners[i], tokenId);\n            }\n        }\n    }\n    function getParents(bytes32 _tokenId) public view returns (bytes32[] memory) {\n        require(_exists(_tokenId),\"Error: Token doesn't exist\");\n        return (_parents[_tokenId]);\n    }\n    function getIpfsId(bytes32 _tokenId) public view returns (string memory) {\n        require(_exists(_tokenId),\"Error: Token doesn't exist\");\n        return (_ipfsAddressByTokenId[_tokenId]);\n    }\n    struct AuxData {\n            uint percentage;\n            address owner;\n            uint numToken;\n        }\n    mapping(bytes32 => AuxData[]) public data;\n    function joinAprove(bytes32[] memory _tokens, uint[] memory _ownerPercentage, string memory _newToken) public {\n        bool isApprovedOrOwner = false;\n        for (uint i = 0; i<_tokens.length; i++) {\n            require(_exists(_tokens[i]),\"Error: Token doesn't exist\");\n            if(_isApprovedOrOwner(msg.sender, _tokens[i])){\n                isApprovedOrOwner = true;\n            }\n        }\n        require(isApprovedOrOwner, \"ERC721: transfer caller is not owner nor approved of token1 or token2\");\n        require(_tokens.length == _ownerPercentage.length, \"Array different length\");\n        require(_joinAproved[keccak256(abi.encodePacked(_newToken))][msg.sender] == false, \"Vote already applied\");\n        //Aqui tengo que mirar cuales son los owners de los tokens raiz, mirar cual es su porcentaje. Una vez hecho esto multiplico esas participaciones \n        //por las participaciones que llegan en el arraypara cada uno de los tokens\n        //MIRO OWNERS DE TOKEN RAIZ y porcentajes\n        //AuxData[] memory data;\n        if(data[keccak256(abi.encodePacked(_newToken))].length == 0){\n            for (uint i = 0; i<_tokens.length;i++){\n                address[] memory owners = _tokenOwner[_tokens[i]];\n                for(uint j = 0; j<owners.length; j++){\n                    //porcentajes de propiedad de los owners del token raiz\n                    AuxData memory aux;\n                    aux.percentage = _ownershipPercentage[_tokens[i]][_tokenOwner[_tokens[i]][j]]* _ownerPercentage[i]/10000; //Porcentaje sobre token3\n                    aux.owner = _tokenOwner[_tokens[i]][j];\n                    aux.numToken = i;\n                    data[keccak256(abi.encodePacked(_newToken))].push(aux);\n                }\n            }\n        }\n\n        _joinAproved[keccak256(abi.encodePacked(_newToken))][msg.sender] = true;\n        for (uint i = 0; i<data[keccak256(abi.encodePacked(_newToken))].length; i++){\n            if (msg.sender == data[keccak256(abi.encodePacked(_newToken))][i].owner){\n                 percentageAproved[keccak256(abi.encodePacked(_newToken))] += data[keccak256(abi.encodePacked(_newToken))][i].percentage;\n            }\n        }\n        \n        //Tiene que aceptarse todos los votos\n        //Aprove if most of votes are agree\n        if (percentageAproved[keccak256(abi.encodePacked(_newToken))]>5000){\n            for (uint i = 0; i<data[keccak256(abi.encodePacked(_newToken))].length; i++){\n                _ownershipPercentage[keccak256(abi.encodePacked(_newToken))][data[keccak256(abi.encodePacked(_newToken))][i].owner] += data[keccak256(abi.encodePacked(_newToken))][i].percentage;\n            }\n            joinTokens (_tokens, _newToken);\n        }\n    }\n    \n}\n",
  "sourcePath": "/Users/bdillon/repos/HackFS2020/contracts/ERC721.sol",
  "compiler": {
    "name": "solc",
    "version": "0.6.11+commit.5ef660b1.Emscripten.clang"
  },
  "schemaVersion": "3.2.3",
  "updatedAt": "2020-07-31T18:39:11.278Z",
  "networkType": "ethereum",
  "devdoc": {
    "details": "see https://eips.ethereum.org/EIPS/eip-721",
    "kind": "dev",
    "methods": {
      "approve(address,bytes32)": {
        "details": "Approves another address to transfer the given token ID The zero address indicates there is no approved address. There can only be one approved address per token at a given time. Can only be called by the token owner or an approved operator.",
        "params": {
          "to": "address to be approved for the given token ID",
          "tokenId": "uint256 ID of the token to be approved"
        }
      },
      "balanceOf(address)": {
        "details": "Gets the balance of the specified address.",
        "params": {
          "owner": "address to query the balance of"
        },
        "returns": {
          "_0": "uint256 representing the amount owned by the passed address"
        }
      },
      "baseURI()": {
        "details": "Returns the base URI set via {_setBaseURI}. This will be automatically added as a preffix in {tokenURI} to each token's URI, when they are non-empty."
      },
      "createToken(address,bytes32,string)": {
        "details": "Internal function to safely mint a new token. Reverts if the given token ID already exists. If the target address is a contract, it must implement `onERC721Received`, which is called upon a safe transfer, and return the magic value `bytes4(keccak256(\"onERC721Received(address,address,uint256,bytes)\"))`; otherwise, the transfer is reverted.",
        "params": {
          "to": "The address that will own the minted token",
          "tokenId": "uint256 ID of the token to be minted"
        }
      },
      "getApproved(bytes32)": {
        "details": "Gets the approved address for a token ID, or zero if no address set Reverts if the token ID does not exist.",
        "params": {
          "tokenId": "uint256 ID of the token to query the approval of"
        },
        "returns": {
          "_0": "address currently approved for the given token ID"
        }
      },
      "isApprovedForAll(address,address)": {
        "details": "Tells whether an operator is approved by a given owner.",
        "params": {
          "operator": "operator address which you want to query the approval of",
          "owner": "owner address which you want to query the approval of"
        },
        "returns": {
          "_0": "bool whether the given operator is approved by the given owner"
        }
      },
      "name()": {
        "details": "Gets the token name.",
        "returns": {
          "_0": "string representing the token name"
        }
      },
      "ownerOf(bytes32)": {
        "details": "Gets the owner of the specified token ID.",
        "params": {
          "tokenId": "uint256 ID of the token to query the owner of"
        },
        "returns": {
          "_0": "address currently marked as the owner of the given token ID"
        }
      },
      "safeTransferFrom(address,address,bytes32)": {
        "details": "Safely transfers the ownership of a given token ID to another address If the target address is a contract, it must implement {IERC721Receiver-onERC721Received}, which is called upon a safe transfer, and return the magic value `bytes4(keccak256(\"onERC721Received(address,address,uint256,bytes)\"))`; otherwise, the transfer is reverted. Requires the msg.sender to be the owner, approved, or operator",
        "params": {
          "from": "current owner of the token",
          "to": "address to receive the ownership of the given token ID",
          "tokenId": "uint256 ID of the token to be transferred"
        }
      },
      "setApprovalForAll(address,bool)": {
        "details": "Sets or unsets the approval of a given operator An operator is allowed to transfer all tokens of the sender on their behalf.",
        "params": {
          "approved": "representing the status of the approval to be set",
          "operator": "operator address to set the approval"
        }
      },
      "supportsInterface(bytes4)": {
        "details": "See {IERC165-supportsInterface}. Time complexity O(1), guaranteed to always use less than 30 000 gas."
      },
      "symbol()": {
        "details": "Gets the token symbol.",
        "returns": {
          "_0": "string representing the token symbol"
        }
      },
      "tokenByIndex(uint256)": {
        "details": "Gets the token ID at a given index of all the tokens in this contract Reverts if the index is greater or equal to the total number of tokens.",
        "params": {
          "index": "uint256 representing the index to be accessed of the tokens list"
        },
        "returns": {
          "_0": "uint256 token ID at the given index of the tokens list"
        }
      },
      "tokenOfOwnerByIndex(address,uint256)": {
        "details": "Gets the token ID at a given index of the tokens list of the requested owner.",
        "params": {
          "index": "uint256 representing the index to be accessed of the requested tokens list",
          "owner": "address owning the tokens list to be accessed"
        },
        "returns": {
          "_0": "uint256 token ID at the given index of the tokens list owned by the requested address"
        }
      },
      "tokenURI(bytes32)": {
        "details": "Returns the URI for a given token ID. May return an empty string. If the token's URI is non-empty and a base URI was set (via {_setBaseURI}), it will be added to the token ID's URI as a prefix. Reverts if the token ID does not exist."
      },
      "totalSupply()": {
        "details": "Gets the total amount of tokens stored by the contract.",
        "returns": {
          "_0": "uint256 representing the total amount of tokens"
        }
      },
      "transferFrom(address,address,bytes32)": {
        "details": "Transfers the ownership of a given token ID to another address. Usage of this method is discouraged, use {safeTransferFrom} whenever possible. Requires the msg.sender to be the owner, approved, or operator.",
        "params": {
          "from": "current owner of the token",
          "to": "address to receive the ownership of the given token ID",
          "tokenId": "uint256 ID of the token to be transferred"
        }
      }
    },
    "title": "ERC721 Non-Fungible Token Standard basic implementation",
    "version": 1
  },
  "userdoc": {
    "kind": "user",
    "methods": {},
    "version": 1
  }
}